{
  "contractName": "ResourceRentalSaveInformation",
  "abi": [
    {
      "inputs": [
        {
          "components": [
            {
              "internalType": "uint256",
              "name": "resourceId",
              "type": "uint256"
            },
            {
              "internalType": "string",
              "name": "resourceName",
              "type": "string"
            },
            {
              "internalType": "bool",
              "name": "loanable",
              "type": "bool"
            },
            {
              "internalType": "uint256",
              "name": "loanInterval",
              "type": "uint256"
            },
            {
              "internalType": "uint256",
              "name": "resourceElectricityCostPerHour",
              "type": "uint256"
            },
            {
              "internalType": "uint256",
              "name": "resourceCosts",
              "type": "uint256"
            },
            {
              "internalType": "uint256",
              "name": "computingPower",
              "type": "uint256"
            },
            {
              "internalType": "bool",
              "name": "buyOut",
              "type": "bool"
            },
            {
              "internalType": "uint256",
              "name": "appraisedValue",
              "type": "uint256"
            }
          ],
          "internalType": "struct ResourceRentalSaveInformation.Resource",
          "name": "resourse_",
          "type": "tuple"
        },
        {
          "components": [
            {
              "internalType": "uint256",
              "name": "startBookingTime",
              "type": "uint256"
            },
            {
              "internalType": "uint256",
              "name": "endBookingTime",
              "type": "uint256"
            },
            {
              "internalType": "address",
              "name": "renter",
              "type": "address"
            }
          ],
          "internalType": "struct ResourceRentalSaveInformation.Booking",
          "name": "booking_",
          "type": "tuple"
        }
      ],
      "payable": false,
      "stateMutability": "nonpayable",
      "type": "constructor"
    },
    {
      "anonymous": false,
      "inputs": [
        {
          "indexed": false,
          "internalType": "uint256",
          "name": "fromTimeStamp",
          "type": "uint256"
        },
        {
          "indexed": false,
          "internalType": "uint256",
          "name": "toTimeStamp",
          "type": "uint256"
        },
        {
          "indexed": false,
          "internalType": "address",
          "name": "renterAddress",
          "type": "address"
        }
      ],
      "name": "BookingCreated",
      "type": "event"
    },
    {
      "constant": false,
      "inputs": [],
      "name": "getBookingInformation",
      "outputs": [],
      "payable": false,
      "stateMutability": "nonpayable",
      "type": "function"
    }
  ],
  "bytecode": "0x608060405234801561001057600080fd5b506040516106793803806106798339818101604052610032919081019061042f565b816000808201518160000155602082015181600101908051906020019061005a9291906101a3565b5060408201518160020160006101000a81548160ff021916908315150217905550606082015181600301556080820151816004015560a0820151816005015560c0820151816006015560e08201518160070160006101000a81548160ff0219169083151502179055506101008201518160080155905050806009600082015181600001556020820151816001015560408201518160020160006101000a81548173ffffffffffffffffffffffffffffffffffffffff021916908373ffffffffffffffffffffffffffffffffffffffff1602179055509050507f63b2ee9406f5b4de2520627b528758c36b93081ec000b0579013c887b40b4562600960000154600960010154600960020160009054906101000a900473ffffffffffffffffffffffffffffffffffffffff16604051610194939291906104a1565b60405180910390a150506105f1565b828054600181600116156101000203166002900490600052602060002090601f016020900481019282601f106101e457805160ff1916838001178555610212565b82800160010185558215610212579182015b828111156102115782518255916020019190600101906101f6565b5b50905061021f9190610223565b5090565b61024591905b80821115610241576000816000905550600101610229565b5090565b90565b600081519050610257816105ac565b92915050565b60008151905061026c816105c3565b92915050565b600082601f83011261028357600080fd5b815161029661029182610505565b6104d8565b915080825260208301602083018583830111156102b257600080fd5b6102bd838284610579565b50505092915050565b6000606082840312156102d857600080fd5b6102e260606104d8565b905060006102f28482850161041a565b60008301525060206103068482850161041a565b602083015250604061031a84828501610248565b60408301525092915050565b6000610120828403121561033957600080fd5b6103446101206104d8565b905060006103548482850161041a565b600083015250602082015167ffffffffffffffff81111561037457600080fd5b61038084828501610272565b60208301525060406103948482850161025d565b60408301525060606103a88482850161041a565b60608301525060806103bc8482850161041a565b60808301525060a06103d08482850161041a565b60a08301525060c06103e48482850161041a565b60c08301525060e06103f88482850161025d565b60e08301525061010061040d8482850161041a565b6101008301525092915050565b600081519050610429816105da565b92915050565b6000806080838503121561044257600080fd5b600083015167ffffffffffffffff81111561045c57600080fd5b61046885828601610326565b9250506020610479858286016102c6565b9150509250929050565b61048c81610531565b82525050565b61049b8161056f565b82525050565b60006060820190506104b66000830186610492565b6104c36020830185610492565b6104d06040830184610483565b949350505050565b6000604051905081810181811067ffffffffffffffff821117156104fb57600080fd5b8060405250919050565b600067ffffffffffffffff82111561051c57600080fd5b601f19601f8301169050602081019050919050565b600061053c8261054f565b9050919050565b60008115159050919050565b600073ffffffffffffffffffffffffffffffffffffffff82169050919050565b6000819050919050565b60005b8381101561059757808201518184015260208101905061057c565b838111156105a6576000848401525b50505050565b6105b581610531565b81146105c057600080fd5b50565b6105cc81610543565b81146105d757600080fd5b50565b6105e38161056f565b81146105ee57600080fd5b50565b607a806105ff6000396000f3fe6080604052348015600f57600080fd5b506004361060285760003560e01c8063c57c732b14602d575b600080fd5b60336035565b005b56fea365627a7a72315820c00c26361bd16d70494ad61bc914b2b13f8c183506bbe4ca104a261a4dee22716c6578706572696d656e74616cf564736f6c63430005100040",
  "source": "// SPDX-License-Identifier: MIT\npragma solidity >=0.4.22 <0.9.0;\npragma experimental ABIEncoderV2;\n\ncontract ResourceRentalSaveInformation {\n    // Resource Information\n    Resource resource;\n\n    // Booking Information\n    Booking booking;\n\n    struct Resource {\n        uint256 resourceId;\n        string resourceName;\n        bool loanable;\n        uint256 loanInterval;\n        uint256 resourceElectricityCostPerHour;\n        uint256 resourceCosts;\n        uint256 computingPower;\n        bool buyOut;\n        uint256 appraisedValue;\n    }\n\n    struct Booking {\n        uint256 startBookingTime;\n        uint256 endBookingTime;\n        address renter;\n    }\n\n    constructor(Resource memory resourse_, Booking memory booking_) public {\n        resource = resourse_;\n        booking = booking_;\n\n        emit BookingCreated(\n            booking.startBookingTime,\n            booking.endBookingTime,\n            booking.renter\n        );\n    }\n\n    function getBookingInformation() public {}\n\n    event BookingCreated(\n        uint256 fromTimeStamp,\n        uint256 toTimeStamp,\n        address renterAddress\n    );\n}\n",
  "sourcePath": "/home/dizzle/Dev/ResourceRentalContracts/contracts/ResourceRentalSaveInformation.sol",
  "compiler": {
    "name": "solc",
    "version": "0.5.16+commit.9c3226ce.Emscripten.clang"
  },
  "schemaVersion": "3.4.7",
  "updatedAt": "2022-05-17T19:50:32.140Z",
  "devdoc": {
    "methods": {}
  },
  "userdoc": {
    "methods": {}
  }
}